:020000040800F2
:10000000D0520020E9020008E1390008012400086C
:10001000DD3800083F0600084541000800000000E8
:10002000000000000000000000000000290200089D
:10003000A90600080000000085020008513B0008E6
:100040000303000803030008030300080303000878
:100050000303000803030008030300080303000868
:100060000303000803030008030300080303000858
:100070000303000803030008030300080303000848
:100080000303000803030008030300080303000838
:100090000303000803030008030300080303000828
:1000A0000303000803030008030300080303000818
:1000B00003030008030300080303000811240008D9
:1000C00005240008030300080303000803030008D5
:1000D0000303000839410008030300080303000874
:1000E00003030008030300080303000803030008D8
:1000F00003030008030300080303000803030008C8
:1001000003030008030300080303000803030008B7
:100110000303000803030008113C00081D3C00080D
:100120000303000803030008030300080303000897
:100130000303000803030008030300080303000887
:100140000303000803030008030300080303000877
:100150000303000803030008030300080303000867
:100160000303000803030008030300080303000857
:100170000303000803030008030300080000000055
:10018000030300080303000800F002F800F03CF845
:100190000AA090E8000C82448344AAF10107DA45E2
:1001A00001D100F031F8AFF2090EBAE80F0013F0F8
:1001B000010F18BFFB1A43F001031847C06300008A
:1001C000E0630000103A24BF78C878C1FAD852071B
:1001D00024BF30C830C144BF04680C6070470000C1
:1001E0000023002400250026103A28BF78C1FBD840
:1001F000520728BF30C148BF0B6070471FB506F0DB
:1002000061F91FBD10B510BD00F0E4F91146FFF70C
:10021000F5FF04F0B7FA00F002FA03B4FFF7F2FFBB
:1002200003BC00F005FA00002C4B19680868B0E820
:10023000F04F80F30988BFF36F8F4FF0000080F319
:10024000118870470000000008480068006880F3CB
:1002500008884FF0000080F3148862B661B6BFF3DF
:100260004F8FBFF36F8F00DF00BF00BF08ED00E0CE
:10027000DFF80C00016841F470010160704700BFB5
:1002800088ED00E0EFF30980BFF36F8F134B1A681E
:100290001EF0100F08BF20ED108A20E9F04F10600B
:1002A00009B44FF0500080F31188BFF34F8FBFF3B4
:1002B0006F8F05F0D1FB4FF0000080F3118809BC6F
:1002C00019680868B0E8F04F1EF0100F08BFB0ECD6
:1002D000108A80F30988BFF36F8F70471C000020DD
:1002E000EFF3058070470000094880470948004740
:1002F000FEE7FEE7FEE7FEE7FEE7FEE7FEE7FEE7D6
:10030000FEE7FEE704480549054A064B7047000032
:10031000013C000889010008D04C0020D052002088
:10032000D04E0020D04E002053EA020C00F069802D
:100330002DE9F04B4FF00006002B1FBFB3FA83F5F9
:1003400003FA05F424FA05F65E4012BF1643B2FA2A
:1003500082F502FA05F4C5F120051EBF22FA05FC5C
:1003600044EA0C04203556EA044C4FEA144418BF02
:10037000641C4FF000084FF00009904271EB030C31
:1003800039D3002919BFB1FA81F701FA07F6B0FA9B
:1003900080F700FA07F6C7F120071EBF20FA07FC16
:1003A00046EA0C062037B6FBF4FCA7EB0507103F26
:1003B00007F01F0BCBF120060CFA0BFB2CFA06F60C
:1003C00044BFB3460026202FA4BF5E464FF0000B6B
:1003D0005BEA060C08BF4FF0010B19EB0B09ABFBF6
:1003E000027C48EB0608C01B06FB02CC0BFB03CCCF
:1003F00071EB0C01C1E70B46024641464846BDE899
:10040000F08B13B54FF000004FF00001AFF3008008
:10041000BDE81C407047032A40F2308010F0030C06
:1004200000F0158011F8013BBCF1020F624498BF47
:1004300011F801CB00F8013B38BF11F8013BA2F1E4
:10044000040298BF00F801CB38BF00F8013B11F05F
:10045000030300F06280083AC0F0088051F8043BC2
:10046000083A51F804CBA0E80810F5E7121D5CBF6C
:1004700051F8043B40F8043BAFF30080D20724BF9F
:1004800011F8013B11F801CB48BF11F8012B24BF33
:1004900000F8013B00F801CB48BF00F8012B704782
:1004A00002F0FF0343EA032242EA024200F069B885
:1004B0004FF0000200B5134694469646203922BFFD
:1004C000A0E80C50A0E80C50B1F12001BFF4F7AF48
:1004D000090728BFA0E80C5048BF0CC05DF804EB2A
:1004E000890028BF40F8042B08BF704748BF20F898
:1004F000022B11F0804F18BF00F8012B7047704796
:100500007047704710B500F05DF8006810BD10B579
:10051000044600F057F8046010BD10B5203AC0F052
:100520000B80B1E81850203AA0E81850B1E81850F4
:10053000A0E81850BFF4F5AF5FEA027C24BFB1E831
:100540001850A0E8185044BF18C918C0BDE81040A2
:100550005FEA827C24BF51F8043B40F8043B08BFAB
:100560007047D20728BF31F8023B48BF11F8012B72
:1005700028BF20F8023B48BF00F8012B70474FF01E
:1005800000020429C0F0128010F0030C3FF492AF77
:10059000CCF1040CBCF1020F18BF00F8012BA8BF6E
:1005A00020F8022BA1EB0C01FFF784BF5FEAC17CAE
:1005B00024BF00F8012B00F8012B48BF00F8012BE5
:1005C00070470000004870476C4C0020004870479E
:1005D0006C4C00207546FFF7F9FFAE4605006946F2
:1005E000534620F00700854618B020B5FFF78AFE75
:1005F000BDE820404FF000064FF000074FF0000824
:100600004FF0000B21F00701AC46ACE8C009ACE8A4
:10061000C009ACE8C009ACE8C0098D46704710B508
:100620000446AFF300802046BDE81040FFF7F5BD5B
:1006300001491820ABBEFEE7260002007047FEE726
:1006400000B5134804F096F800EE100A114804F0C3
:1006500091F8B8EEC00ADFED100A9FED101A1149AB
:10066000C0EE201A81EE810ADFED0D1A20EE210A7C
:1006700081ED000A00EE100AB8EEC02A82EE200AD0
:10068000C0EE010A20EEA10A81ED010A00BD0000C2
:1006900094010020DC01002000001C450AD7233C07
:1006A000000070429C000020704772B6FEE72DE902
:1006B000F0410446876D00F069F9064694F835006C
:1006C0000025022806D08020606584F8345001207F
:1006D000BDE8F0812068016821F016010160206802
:1006E000416921F080014161206C08B9A06C20B102
:1006F0002068016821F0080101602068016821F08C
:10070000010101600CE000F041F9801B052807D9C8
:1007100020206065032084F8350084F83450D7E742
:1007200020680068C007EED194F85C103F20884034
:10073000B860012084F8350084F834500020C7E701
:1007400090F83510022903D08021416501207047BF
:10075000052180F835100068016821F00101016071
:100760000020704790F835007047000070B50446CF
:1007700000F00CF90546601C02D0044800780444DF
:1007800000F004F9401BA042FAD370BD0C00002019
:100790002DE9F84FDFF8BCA10022012503264FF018
:1007A0000F090AF1040BAAF1040E00BF0B6805FA49
:1007B00002F42340A34270D10F7907F00307012F01
:1007C00001D0022F16D187684FEA420806FA08FCCA
:1007D00027EA0C07D1F80CC00CFA08FC4CEA070C0D
:1007E000C0F808C04768A7430C79C4F300149440CC
:1007F0003C4344600C79E443A4070AD0C4684FEA40
:10080000420C06FA0CF7BC438F6807FA0CF7274333
:10081000C7600C7904F00304022C12D1D40800EB59
:10082000840CDCF820405707FF0E09FA07F824EA89
:100830000804D1F8108008FA07F848EA0408CCF850
:10084000208004684FEA420C06FA0CF7BC430F798B
:1008500007F0030707FA0CF7274307604C6814F406
:10086000403F70D03C4C276847F48047276024689D
:1008700022F0030704F480440094384C07EB040C86
:10088000DCF8084897074FEA177809FA08F7BC43DD
:10089000334FB84202D1002724E054E0314FB84230
:1008A00001D101271EE0304FB84201D1022719E0E3
:1008B0002E4FB84201D1032714E02D4FB84201D189
:1008C00004270FE02B4FB84201D105270AE02A4F39
:1008D000B84201D1062705E0284FB84201D10727C9
:1008E00000E0082707FA08F72743CCF80878DAF879
:1008F00000405746D1F804C09C435FEACC2C00D599
:100900001C433C60DBF800405F46D1F804C09C43C8
:100910005FEA8C2C00D51C433C60DEF80040774633
:10092000D1F804C09C435FEA8C3C00D51C433C607A
:10093000084F083F3C68D1F804C09C435FEACC3CB8
:1009400000D51C433C60521C102AFFF42FAFBDE8B9
:10095000F88F0000083C014044380240003001405C
:10096000000002400004024000080240000C024067
:10097000001002400014024000180240001C024017
:100980000AB1816170470904FBE7000001488068F3
:10099000704700000C000020704770472DE9F041BF
:1009A000016804464A694E6890F83E000025D74326
:1009B000FA0506D4F243D20503D46FF48072012500
:1009C0004A61B90508D4F143C90505D422686FF41A
:1009D000007145F002055161790525D4F143C9053F
:1009E00022D4638D94F83D10226B202808D13BB9A6
:1009F000212910D029290ED0282901D1212A0AD055
:100A000022686FF48061516145F00405102806D01A
:100A1000402804D008E0204602F0CAF904E020682B
:100A2000016841F400710160380508D4F043C00545
:100A300005D421686FF4006045F008054861002D79
:100A400007D0206C284320642046BDE8F04101F027
:100A50004BBDBDE8F0812DE9F047026800215368E5
:100A6000C66A90F83E4090F83D50102C12D0402CB1
:100A700010D0046C002C7DD05469E443A6077AD4CE
:100A8000DE43B60577D4036C03B19169BDE8F04746
:100A900002F06AB9976951694FF42A0CC9435FEAB9
:100AA000C1784FF02A4904D066452AD04E4528D057
:100AB00010E0DE43B6050DD4C16A614501D10121C4
:100AC00003E0C16A494501D10821C162BDE8F04790
:100AD00001F0DEBF0E0716D4DE43B60513D4416C19
:100AE000C9B21161416B09B1C96B29B9816B002988
:100AF00007D0C96B002904D00068416841F4006147
:100B00004160BDE8F0878E0706D4DE43B60503D406
:100B1000BDE8F04701F030BFFE43526876074FEA68
:100B200002521DD4002AECDB0A0608D4DA4352052F
:100B300005D4490705D5BDE8F04701F0C1BE490716
:100B4000DFD4D9438905DCD4212D05D0402CD8D160
:100B5000BDE8F04701F0E2BFBDE8F04701F06EBE2E
:100B6000002ACEDB4A060BD4DA43520508D44907E3
:100B700008D501E00DE00EE0BDE8F04701F0E4BD6E
:100B80004907BED4D9438905BBD4BDE8F04701F07D
:100B90006EBD916970E7E10606D4D943890503D497
:100BA000BDE8F04702F04CB92821212D27D0292D8E
:100BB00025D0650655D4DD436D0552D4640752D562
:100BC00090F83D30448D002C9BD01269446A22700D
:100BD000426A521C4262428D521E4285428D002A58
:100BE0008FD12A2B8DD10268536823F48063536020
:100BF0002222026380F83D1000F0EEFA81E725061C
:100C000023D4DD436D0520D4640720D590F83D3012
:100C1000448D002CF2D0446A24781461426A521C3C
:100C20004262428D521E4285428D002AE6D1292B16
:100C3000E4D10268536823F4806353602122026385
:100C400080F83D1000F0C9FA5BE76107D6D4D943BC
:100C50008905D3D4418D0029D0D0416A097811612A
:100C60000AE06107CAD4D9438905C7D4418D002958
:100C7000C4D01169426A1170416A491C4162418DB8
:100C8000491E41853DE7704770B5040025D094F8B2
:100C90003D00002520B984F83C50204600F058FA69
:100CA000242084F83D002068016821F001010160E2
:100CB0002068016841F4004101602068016821F466
:100CC0000041016000F00EFC4D4A6168914201D87C
:100CD0004C4900E04C49884201D2012070BD4B498B
:100CE0002368B0FBF1F15E6826F03F060E435E60BC
:100CF0006368934206D94FF4967359434FF47A735D
:100D0000B1FBF3F12368491C1E6A26F03F0631430C
:100D100019626168914210D84900401EB0FBF1F29F
:100D2000521CC2F30B02042A01D2042022E0B0FBC1
:100D3000F1F0401CC0F30B001CE0A268F2B301EB21
:100D4000C10303EB0116431EB3FBF6F35B1C43F434
:100D500080431B0549D092B301EBC10202EB0111A4
:100D6000401EB0FBF1F0401CC0F30B0040F480408B
:100D700040F400402168CA694CF6FF739A4310435F
:100D8000C861D4E9071001432068026822F0C0025C
:100D900011430160D4E9030101432068826848F2ED
:100DA000FF339A4311438160D4E905010843216868
:100DB000CA6822F0FF021043C86001E00EE016E0AE
:100DC0002068016841F0010101602564202084F859
:100DD0003D00256384F83E50002070BD01EB4106C4
:100DE000431EB3FBF6F35B1CB3E70120C2E701EB44
:100DF0004101401EB0FBF1F0401CC0F30B00B7E70F
:100E0000A086010080841E0000093D0040420F00C2
:100E10007047704770477047704700002DE9FF4FDB
:100E200083B09A46DDE9118793460446DDF8409089
:100E3000FFF7ACFD054694F83D00202870D119233A
:100E4000012274492046009502F0D4F80028F5D11B
:100E500094F83C00012863D0012084F83C0020680D
:100E60000168C90703D1016841F0010101602068F0
:100E7000016821F400610160222084F83D004020D7
:100E800084F83E0000262664C4F82490A4F82A8042
:100E9000608D20856048E062CDE9007553465A4672
:100EA0002046049901F08EFE002879D1208DD0B122
:100EB000012821D00228206824D04169806900904F
:100EC000208D032866D801282BD0544902283B46A0
:100ED0004FF00002009557D08846204602F08AF86D
:100EE00000285DD13AE0206841698169009101687C
:100EF00041F4007101607DE02068016821F48061A7
:100F00000160F0E7016821F48061016020680168F8
:100F100041F400610160206841698069009069E0E6
:100F200075E02A463946204602F00AF988BB54E0AB
:100F30002068016841F40071016020680069616AFD
:100F40000870606A401C6062218D491E2185618D98
:100F5000491E618521680969017042E020680168C5
:100F600021F48061016020680069616A0870606A2C
:100F7000401C6062208D401E2085608D401E608573
:100F80003B46002241460095204602F033F800B966
:100F9000CEE705E02A463946204602F0D1F818B1DE
:100FA000012007B0BDE8F08F20680069616A087011
:100FB000606A401C6062208D401E81B22185608D78
:100FC000401E608520684269D243520712D403292B
:100FD00003D1016821F48061016020680069616AC1
:100FE0000870606A401C6062208D401E2085608D04
:100FF000401E6085208D00287FF462AF202084F899
:101000003D0084F83E6084F83C600020C9E702207F
:10101000C7E70000020010000000FFFF040001000D
:101020002DE9FF4F83B09A46DDE9119793460446B8
:10103000DDF84080FFF7AAFC054694F83D00202823
:101040007FD11923012240492046009501F0D2FFAB
:10105000002876D194F83C00012872D0012084F851
:101060003C0020680168C90703D1016841F0010113
:1010700001602068016821F400610160212084F88A
:101080003D00402084F83E0000262664C4F82480F9
:10109000A4F82A90608D20852C48E062CDE9007587
:1010A00053465A462046049901F00AFE70B930E0D2
:1010B0002A463946204602F07BF858B1206C0428B5
:1010C00004D12068016841F400710160012007B07B
:1010D000BDE8F08F606A216800780861606A401C92
:1010E0006062218D491E89B22185628D521E628502
:1010F00022685369DB435B070BD469B10078106148
:10110000606A401C6062208D401E2085608D401EFC
:101110006085208D0028CBD12A463946204601F033
:101120003DFF0028CAD154F83D0B016841F400711D
:101130000160202004F81E09E67766770020C6E7E4
:10114000FFE70220C3E70000020010000000FFFFDD
:1011500010B586B0044614216846FFF7A9F91B496B
:101160002068884230D11A48016841F002010160CC
:101170000068694600F002000590C020009012202F
:101180000190012002900320039004200490114854
:10119000FFF7FEFA0E481030016841F400110160BB
:1011A0000068002200F40010059005211F2000F0C7
:1011B000ADF81F2000F09CF800220521202000F04F
:1011C000A5F8202000F094F806B010BD00540040AF
:1011D000303802400004024070477047024881687E
:1011E00002781144816070470C0000200B4810B554
:1011F000016841F400710160016841F4806101609F
:10120000016841F480710160032000F09FF80F2015
:1012100000F006F800F050F8002010BD003C02403D
:1012200030B505461F4887B00024016841F0200111
:101230000160006806A900F02000009001A800F0FD
:1012400031F90498A8B100F04DF940001649174A49
:10125000B0FBF1F11648491E026040F2E732C0E9E6
:101260000324C0E90114846100F0B8FB040003D03A
:1012700015E000F037F9E9E70D4800F0FBFB04004A
:101280000DD1372000F034F8102D07D20022294666
:10129000372000F03BF80748056000E0012407B064
:1012A000204630BD4038024040420F00001400404C
:1012B000B4020020100000200C4882B0016841F404
:1012C00080410160006800F4804000900748001FE2
:1012D000016841F0805101600068002200F08050F8
:1012E00000900F21901E02B000F010B84438024068
:1012F000002809DB00F01F02012191404009800015
:1013000000F1E020C0F8001170470000F0B40E4B6F
:101310001B680C46C3F30223C3F10705042D00D953
:101320000425191D072901D2002300E0DB1E012638
:1013300006FA05F1491E214099409E40761E16404E
:101340003143F0BC02F012BF0CED00E0064900F0A2
:10135000070208684FF6FF03184040EA0220034ADC
:1013600010430860704700000CED00E00000FA0533
:101370002DE9F0470E46050065D0DFF81481D8F856
:101380000000F7B200F00700B04207D288F8007002
:10139000D8F8000000F00700B04254D128683D4C56
:1013A000810712D5400703D5206840F4E050206043
:1013B0002878000703D5206840F46040206020684A
:1013C000A96820F0F000084320602878C0072DD0DD
:1013D000304968680839012812D0022813D0032840
:1013E00011D00968890700292DDA216821F003014D
:1013F00001432160FFF7CAFA814641F2883A0EE0C4
:1014000009688903EFE709688901ECE7FFF7BEFA8D
:10141000A0EB0901514502D90320BDE8F0872068FF
:10142000696800F00C00B0EB810FEFD1D8F8001024
:10143000404601F00701B14207D90770006800F08B
:101440000700B04201D00120E7E72878400705D522
:101450002068E96820F4E0500843206028780007FD
:1014600006D52068296920F4604040EAC100206068
:1014700000F058F82168084AC1F30311515CC840D4
:101480000649086006480068FFF7CAFE0020C4E766
:10149000003C0240083802403C650008180000206B
:1014A000100000200F2202600C4A136803F00303AF
:1014B0004360136803F0F0038360136803F4E053A0
:1014C000C36012684FF4E05303EAD2020261044899
:1014D000006800F00700086070470000083802400C
:1014E000003C02400448054900680968044AC1F309
:1014F0008221515CC8407047180000200838024023
:101500004C6500080448054900680968044AC1F3AD
:101510004231515CC8407047180000200838024032
:101520004C650008154810B5006810F00C0214480E
:1015300013D01449042A0FD0082A0ED10F4C241FAF
:101540002268236802F03F025B0207D52068C0F3DF
:101550008810A0FB010106E0084610BD2168C1F318
:101560008811A1FB00010023FEF7DEFE2168C1F314
:101570000141491C4900B0FBF1F010BD08380240A0
:101580000024F40040787D012DE9F84F04006ED06E
:101590002078DFF84C93C007A9F104054AD009F17F
:1015A00004000168C1F38101012908D00068C0F37B
:1015B000810002280AD1D9F80000400206D5286827
:1015C000800337D560680028E1D033E06068B0F56B
:1015D000803F10D0B0F5A02F286810D020F48030C4
:1015E0002860286820F4802028606068A8B1FFF790
:1015F000CDF906460DE0286840F48030F4E740F469
:1016000080202860F7E700BFFFF7C0F9801B64283F
:1016100073D828688003F7D50CE0FFF7B7F90646C2
:1016200005E000BFFFF7B2F9801B6428F0D82868F6
:101630008003F7D42078DFF8AC8280074FF0000AEF
:101640003ED5A748001D016811F00C0F08D00068B6
:10165000C0F3810002280BD1D9F80000400207D462
:101660002868800716D5E068012800D112E033E130
:10167000E068B8B10120C8F80000FFF787F9064616
:1016800005E000BFFFF782F9801B0228C0D8286858
:101690008007F7D52868216920F0F80040EAC100EA
:1016A00028600DE0C8F800A0FFF770F9064604E0D6
:1016B000FFF76CF9801B02281FD828688007F7D431
:1016C0002078000722D5864F87486169703771B14D
:1016D00001210160FFF75AF9064604E0FFF756F9C9
:1016E000801B022809D838688007F7D50EE0C0F8BB
:1016F00000A0FFF74BF9064605E082E0FFF746F948
:10170000801B02287DD838688007F7D420784007EE
:1017100068D5DFF8CCB100270BF13C0BDBF80000FB
:10172000C0000BD4DBF8001041F08051CBF8001062
:10173000DBF80000012700F0805000906B4E30680D
:10174000C00510D4306840F480703060FFF71EF997
:10175000009005E0FFF71AF90099401A022850D8C6
:101760003068C005F6D55E4EA0686C3601280FD0F3
:101770000528306810D020F001003060306820F07B
:1017800004003060A068B8B1FFF700F900900FE0E6
:10179000306840F00100F4E740F004003060F7E703
:1017A000FFF7F4F80099411A41F28830814266D877
:1017B00030688007F4D50EE0FFF7E8F8009007E006
:1017C000FFF7E4F80099411A41F28830814256D877
:1017D00030688007F4D42FB1DBF8001021F080517D
:1017E000CBF80010A069C8B33D49091D0968C1F3D1
:1017F000810102294AD00228504607D0C8F860006B
:1018000000E03CE0FFF7C2F804463BE04746C8F87A
:101810006000FFF7BBF8064605E000BFFFF7B6F82B
:10182000801B02282BD828688001F7D4D4E907014F
:101830000843A16A2E4A490802EB0141626A41EA63
:101840008211084394F82C1040EA0161C9F8001095
:1018500001203866FFF79AF8044606E03EE000BF34
:10186000FFF794F8001B022809D828688001F7D5F3
:1018700034E000BFFFF78AF8001B022802D90320DA
:10188000BDE8F88F28688001F4D427E00128F7D05C
:10189000D9F80000E26900F4800191421CD1226A6B
:1018A00000F03F01914217D147F6C071626A0140D2
:1018B000B1EB821F10D1A26A4FF0FF3300F4403128
:1018C00003EB5202B1EB024F06D194F82C1000F05A
:1018D0007060B0EB016F01D00120D1E70020CFE7AD
:1018E0000438024000004742800E4742007000402A
:1018F0000000FFFF7047704710B590F83C20012AA8
:1019000022D0012280F83C20CA688C6822F4407200
:1019100022434C6822F4806222430C6822F4006265
:1019200022430C6922F4805222434C6922F4005273
:101930002243C969002322F480420A4301684A64B1
:1019400080F83C30002010BD022010BD70B590F82A
:101950003C20012A32D0012480F83C40022280F849
:101960003D2003685A689D6822F070060A68324379
:101970005A60134B02689A4214D0B2F1804F11D0D2
:10198000104B9A420ED0104B9A420BD00F4B9A42FA
:1019900008D00F4B9A4205D00E4B9A4202D00E4B04
:1019A0009A4204D1496825F080031943916080F878
:1019B0003D40002180F83C10084670BD022070BDFB
:1019C000000001400004004000080040000C0040FE
:1019D00000040140004001400018004010B5040020
:1019E00003D094F83D0010B107E0012010BD0020A5
:1019F00084F83C00204600F01FF8022084F83D00E7
:101A0000211D206802F010F9012084F8460084F8B6
:101A10003E0084F83F0084F8400084F8410084F8D8
:101A2000420084F8430084F8440084F8450084F8B8
:101A30003D00002010BD000008B500680B49884239
:101A400012D10B48016841F01001016000680022CA
:101A500000F01000009005213620FFF757FCBDE88C
:101A600008403620FFF744BC08BD000000100040CD
:101A70004038024090F83D10012901D00120704704
:101A8000022180F83D100168CA6842F00102CA6074
:101A900000681149884214D0B0F1804F11D00F492D
:101AA00088420ED00E4988420BD00E49884208D099
:101AB0000D49884205D00D49884202D00C49884220
:101AC00004D1816801F00701062903D0016841F0C3
:101AD0000101016000207047000001400004004047
:101AE00000080040000C004000040140004001409C
:101AF000001800402DE9F0410D46040003D094F891
:101B00003D0018B108E00120BDE8F081002084F814
:101B10003C00204600F040F8022084F83D00206898
:101B2000816844F2070291438160211D206802F020
:101B30007BF8226890689169166A2B68AF69034345
:101B400040F20330814341EA0721A868EF69084366
:101B50004FF6FC418843E96840EA072001432869C1
:101B60002F6A000140EA0730084369686D6926F072
:101B7000AA0646EA0515294393602268906154F845
:101B8000460B0162012004F81F09E0752076E0761B
:101B90002077A0750020B7E730B587B00446142140
:101BA0006846FEF785FC2148246800221F4910384A
:101BB0000223B4F1804F1FD01D4DAC421AD10C68E6
:101BC00044F004040C60096801F004010591016807
:101BD00041F0080101600068694600F008000590C6
:101BE0004FF440500090CDE901321248CDE9032373
:101BF000FEF7CEFD07B030BD0C6844F001040C6068
:101C0000096801F001010591016841F001010160DD
:101C10000068694600F00100059003200090CDE9BE
:101C200001320120CDE903200348E1E740380240BA
:101C300000080040000C02400000024070472DE9FF
:101C4000F04104460068C66805694FF00007A9071F
:101C500013D5B10711D5F91E016101202077206845
:101C600080698007204602D0FFF7E8FF04E000F01B
:101C7000A9F8204600F04EF92777680716D57007B7
:101C800014D521686FF004000861022020772068D5
:101C9000806910F4407F204602D0FFF7CFFF04E0B8
:101CA00000F090F8204600F035F92777280715D581
:101CB000300713D521686FF00800086104202077F1
:101CC0002068C0698007204602D0FFF7B7FF04E014
:101CD00000F078F8204600F01DF92777E80616D5C1
:101CE000F00614D521686FF01000086108202077F5
:101CF0002068C06910F4407F204602D0FFF79EFFA5
:101D000004E000F05FF8204600F004F92777E807C8
:101D100008D0F00706D021686FF001000861204666
:101D200000F05EF9280608D5300606D521686FF068
:101D3000800008612046FFF7DDFD680608D57006C3
:101D400006D521686FF040000861204600F052F986
:101D5000A8060AD5B00608D521686FF020000861F2
:101D60002046BDE8F041FFF7C6BDBDE8F0810000A8
:101D700010B586B0044614216846FEF799FB0E495B
:101D80002068884216D10D480021026842F01002F6
:101D90000260006800F0100005904FF42060009091
:101DA0000220CDE901010120CDE903106946044874
:101DB000FEF7EEFC06B010BD0000014030380240D6
:101DC00000100240704770B5044690F83C000026B1
:101DD0000D4601280FD0012084F83C006AB1042A86
:101DE0001DD0082A2FD00C2A3FD00126002084F8CD
:101DF0003C00304670BD022070BD206801F08AFFB3
:101E00002068816941F0080181612068816921F0C1
:101E100004018161206881692A69114311E0206809
:101E200001F0A8FF2068816941F4006181612068A8
:101E3000816921F480618161206881692A6941EAB0
:101E400002218161D2E7206801F0CAFF2068C169E0
:101E500041F00801C1612068C16921F00401C1613C
:101E60002068C1692A69114311E0206801F0ECFF84
:101E70002068C16941F40061C1612068C16921F431
:101E80008061C1612068C1692A6941EA0221C1619A
:101E9000ACE710B5040003D094F83D0010B107E0A2
:101EA000012010BD002084F83C00204600F01EF800
:101EB000022084F83D00211D206801F0B5FE0120BC
:101EC00084F8460084F83E0084F83F0084F840001F
:101ED00084F8410084F8420084F8430084F8440008
:101EE00084F8450084F83D00002010BD08B5006866
:101EF0000649884208D10648016841F001010160A5
:101F0000006800F00100009008BD000000000140E2
:101F1000443802407047000010B50446022249B11F
:101F200004290ED0082913D094F84100012816D0B6
:101F3000012010BD94F83E000128F9D184F83E201C
:101F40000FE094F83F000128F2D184F83F2008E028
:101F500094F840000128EBD184F8402001E084F897
:101F600041200122206801F0C7FE16492068164A68
:101F7000884201D0904203D1436C43F40043436450
:101F80002068884213D0B0F1804F10D00F498842AA
:101F90000DD00F4988420AD00E49884207D090429E
:101FA00005D00D49884202D00C49884204D181688D
:101FB00001F00701062903D0016841F00101016029
:101FC000002010BD0000014000040140000400405A
:101FD00000080040000C0040004001400018004094
:101FE00000680349884201D1FFF7F8B87047000044
:101FF000001400407047704770470000F8B5016852
:1020000004460868CA684B6910F00F0F4FF00005CE
:1020100059D003F0010602F49077374365D0C10729
:1020200005D0D10503D5616C41F001016164410720
:1020300005D5D90703D0616C41F0020161648107C5
:1020400005D5D90703D0616C41F004016164010733
:1020500007D502F02001314303D0616C41F0080143
:102060006164616C00293AD0800604D5900602D5DF
:10207000204601F03FFF20684069616CC0F380108A
:10208000090700D460B3204601F00DFF20684069C5
:10209000400621D52068143050E8001F21F040018F
:1020A00040E80012002AF5D1E06BA8B17249016541
:1020B000E06BFEF745FB002811D0E06B016D01B02D
:1020C000BDE8F040084783060FD593060DD520469E
:1020D000BDE8F84001F00EBF2046FFF78DFFF8BDC8
:1020E0002046FFF789FF6564F8BD266B2023012E8B
:1020F0007ED1C6067CD5D6067AD508684868009099
:1021000048694FF0020640064DD5E26B1068406802
:102110004FF480770004000C3AD0A18D814237D96A
:10212000E085D069B8422DD020680C3050E8001FFF
:1021300021F4807140E80012002AF5D120681430A3
:1021400050E8001F21F0010140E80012002AF5D1FB
:102150002068143050E8001F21F0400140E80012D0
:10216000002AF5D184F84230256320680C3050E80D
:10217000001F21F0100140E80012002AF5D1E06BA9
:10218000FEF795FA6663A08DE18D401A81B206E0F4
:10219000A18D8142A8D1D069B842A5D166632046FD
:1021A000FFF729FFF8BDA08DE18D401A81B2E08DC7
:1021B0000028F7D00029F5D020680C3050E8002F17
:1021C00022F4907240E80027002FF5D120681430E7
:1021D00050E8002F22F0010240E80027002FF5D13F
:1021E00084F84230256320680C3050E8002F00E06E
:1021F00006E022F0100240E80023002BF3D1CDE7E7
:1022000005062BD5150629D594F841002128C9D1FA
:10221000A068B0F5805F01D12069B0B1206A411C8F
:102220002162216800784860E08C401E0004000CA8
:10223000E084B7D12068C16821F08001C1602068C6
:10224000C16841F04001C160F8BD206A0088C0F358
:1022500008004860206A801C2062E5E74006F3D54C
:102260005006F1D5CA68204622F04002CA6084F8C0
:10227000413000F0C4F8F8BD993E000870B5040084
:1022800004D094F84100002510B106E0012070BD93
:1022900084F84050204600F023F8242084F84100C0
:1022A0002068C16821F40051C160204601F084FE1D
:1022B0002068016921F4904101612068416921F0A1
:1022C0002A0141612068C16841F40051C160656420
:1022D000202084F8410084F842006563002070BD2E
:1022E00010B586B0044614216846FEF7E1F8184997
:1022F0002068884229D117480021026842F0100264
:102300000260006800F0100005901248143802685E
:1023100042F001020260006800F0010005904FF4F5
:10232000C06000900220CDE9010103200390072046
:10233000049069460848FEF72BFA00220521252063
:10234000FEF7E4FF2520FEF7D3FF06B010BD000026
:1023500000100140443802400000024070472DE95F
:10236000F843044690F84100984616460D4620284A
:1023700002D00220BDE8F88385B17EB10020606400
:10238000212084F84100FEF701FBA6848146E68403
:10239000A0682027B0F5805F02D003E00120E9E7C4
:1023A000206910B12E4600250EE000260CE08021A9
:1023B000204601F087FEA8B9C6B116F8010B2168C6
:1023C0004860E08C401EE084E08C4B464FF00002F9
:1023D000CDF800800028EAD14FF04001204601F0FE
:1023E00071FE40B184F841700320C3E735F8020B59
:1023F000C0F30800E3E784F841700020BAE77047B3
:10240000FEE700000148FEF7C9BA0000F80000200E
:102410000148FEF720BB0000F800002038B5806BB3
:10242000002190F83D202B4B46F2A8141B68B3FB0B
:10243000F4F3C3EBC30303EB830300933BB15B1ED5
:10244000009303681B689B0505D5009BF6E7036CAA
:1024500043F020030364436B03B1D963836B03B17F
:10246000D96303681C6824F480641C604185436B55
:1024700003B11965836B03B1196503681C6824F007
:1024800001041C6090F83D402023602C0BD02824D0
:1024900034EA02020FD080F83D3080F83E1000BFD1
:1024A000FEF7F1FB38BD80F83D3080F83E10016446
:1024B000FEF772FA38BD0268136843F00103136037
:1024C0000268136843F480631360016380F83D4041
:1024D000E6E700001800002000684169C9430906CA
:1024E00001D400210161704770B5044690F83D00A9
:1024F00094F83E10102901D0402906D1222804D199
:1025000021680A6822F400620A60282131EA000288
:102510004FF000054FF0200626D0216849680905D4
:1025200005D4602803D084F83D6084F83E502563CC
:1025300020684168090537D5416821F40061416090
:10254000606B90F835203C49012A11D00165606B21
:10255000FEF7F6F838B32068016821F00101016048
:1025600084F83D60606B1CE0256384F83D10DFE774
:10257000A06B0165A06BFEF7E3F8A0B1206841698C
:10258000C943490605D40069616A0870606A401C45
:1025900060622068016821F00101016084F83D60FB
:1025A000A06B016D884710E094F83D10602910D0B1
:1025B0004169C943490605D40069616A0870606AC7
:1025C000401C60622046FEF75EFB206CC1071CD1F8
:1025D00015E084F83D6025644169C943490605D486
:1025E0000069616A0870606A401C60622068016866
:1025F00021F0010101602046FEF7CEF9E5E78107F1
:1026000003D4410701D4000704D52068416821F4B0
:10261000E061416094F83D00216C49070BD5282802
:1026200009D10648E062256384F83D6084F83E5095
:102630002046FEF7EDFB70BD1D2400080000FFFFE3
:1026400001684A69D24352050FD46FF480624A612F
:10265000002140F8301F202242738173026942F04A
:10266000040202610173012070470020704710B519
:10267000C26A438D0168042B06D0438D032B08D01A
:10268000438D022B1DD012E04A6822F480624A601A
:102690000CE04B6823F480634B60042A06D0022AC6
:1026A00004D001680A6822F480620A60016809693E
:1026B000426A1170416A491C4162418D491E41853F
:1026C00010BD012A34D0102A32D0042A34D0022A74
:1026D00032D00B6843F400730B6001680969436AE8
:1026E0001970416A491C4162438D5B1E4385036832
:1026F0001B690B70416A491C4162418D491E41852D
:1027000001684B6823F440734B60202180F83D1032
:1027100090F83E300021402B80F83E1010D0082A5F
:1027200002D0202A00D012210163FEF772FB10BDF7
:102730000B6823F48063CFE70B6843F48063CBE737
:102740000163FEF768FB10BD38B590F83D102229F3
:1027500010D1C36A418D03290DD901680969426A04
:102760001170416A491C4162418D491E4185418D6C
:10277000032906D038BDC26A022A02D0012906D038
:1027800029B10068416821F48061416038BD2A4A5E
:1027900046F2A81400211268B2FBF4F202EB8202A6
:1027A000009202682024009D6D1E009526D01568B9
:1027B000AD05F8D4156825F4806515600268556884
:1027C00025F4E065556002681269456A2A70426A1C
:1027D000521C4262428D521E428580F83D4090F864
:1027E0003E2080F83E10402A21D0082B02D0202B1A
:1027F00000D012210163FEF70CFB38BD036C43F0DF
:1028000020030364536823F4E06353600268126991
:10281000436A1A70426A521C4262428D521E4285BD
:1028200080F83D4080F83E10FEF72DFA38BD016378
:10283000FEF7F1FA38BD00001800002010B5C26A9A
:1028400090F83D1021290BD1418D51B1416A0268A8
:1028500009781161416A491C4162418D491E4185D7
:1028600010BD20230021082A13D0202A11D012F5F0
:10287000803F0ED00268546824F4E0645460112252
:10288000026380F83E1080F83D3000BFFEF7C2FAC8
:1028900010BD0268546824F4E0645460026814684F
:1028A00044F400741460016380F83D3090F83E20D9
:1028B00080F83E10402AE9D1FEF7AEFA10BD0000C4
:1028C00010B590F83D1090F83E30C26A048DB4B156
:1028D000212903D0402B11D122290FD1418DE1B301
:1028E00090F83E10402942D0416A0268097811618F
:1028F000416A491C4162418D491E418510BD212913
:10290000E8D120230021082A13D0202A11D012F563
:10291000803F0ED00268546824F4E06454601122B1
:10292000026380F83E1080F83D3000BFFEF772FA77
:1029300010BD0268546824F4E064546002681468AE
:1029400044F400741460016380F83D3090F83E2038
:1029500080F83E10402AE9D100E002E0FEF75CFA80
:1029600010BD0068416821F48061416010BDBDE880
:10297000104000F0D3B8000078B590F83E50C26A1D
:10298000036B90F83D6000240168222E7AD1066D19
:102990000EB9402D76D0056D1DB90569B5F5404FCE
:1029A00009D0458D05B3468D384D012E0ED0438D8F
:1029B000022B3AD05DE04A698A6900920A6842F4C3
:1029C00080720A60016D491C016578BDAA4213D16D
:1029D0000A6822F480620A6001684A68120503D519
:1029E0000A6822F4806216E04A698A6900920A68DD
:1029F00042F400720A6039E0082A10D0202A0ED072
:102A0000122B0AD0042A03D0022A01D0102AE7D1BF
:102A10000A6842F480620A6024E0012AE0D00A6871
:102A200022F480620A600168DEE7042A21D0022ACB
:102A30001FD0102A1DD00B6823F480630B6001683F
:102A40000B6843F400630B6001684B681B0509D5F4
:102A5000AA4212D0012A10D0082A0ED0102A0CD077
:102A6000202A0AD001684A6989690091046578BD05
:102A700008E00B6843F48063E5E74A6842F480525B
:102A80004A60EFE7486988690090F0E70000FFFFBF
:102A900090F83E10402910D00169B1F5804F19D04F
:102AA000016DA9B3016D012910D1416C5FF0F102F4
:102AB00001F4407142EAD11106E0016D0029416C38
:102AC00005D0C9B241F0010100680161704701F011
:102AD000FE01F9E790F83D102129416C09D0C9B2F7
:102AE00041F0010102681161416B29B1C96B49B91B
:102AF00002E001F0FE01F5E7816B0029E6D0C96B29
:102B00000029E3D00068416841F4006141607047EA
:102B1000FFE7416CF02201F44071CBE710B590F86B
:102B20003D10026D4AB1026D012A14D0026D022AD5
:102B300016D0BDE81040FFF7CFBCC16C0129816CF5
:102B400002D0C1F3072108E00268C9B21161016D2A
:102B5000891C016510BD816CC9B20268116123E056
:102B600022291CD0428D0AB1212920D0428D002A71
:102B7000F0D12129EED101684A6822F4E0624A606E
:102B800001680A6842F400720A6000210163202291
:102B900080F83D2080F83E10FEF73EF910BD016838
:102BA0000A6842F480720A60016D491CD1E7416AEB
:102BB000026809781161416A491C4162418D491ED0
:102BC000418510BD2DE9F84F0446006889460B9DEC
:102BD00001689846174641F48061016020680168E9
:102BE00041F48071016000954FF0011B00225946AD
:102BF00020460A9B00F0FEF94FF4007A40B12068AD
:102C00000068C00501D5C4F840A00320BDE8F88FD6
:102C1000216809F0FE0008612B46284920460A9ADF
:102C200000F030FAF0BB20684169806900902A46C4
:102C300020460A9900F0BCFA40B1206C04283AD131
:102C40002068016841F40071016034E0FEB2B8F11F
:102C5000010F09D02168380A08612A4620460A99DE
:102C600000F0A6FA0028E8D1206806612A4620462E
:102C70000A9900F09DFA0028DFD12068016841F42C
:102C80008071016000950022594620460A9B00F0A1
:102C9000B1F90028B3D1216809F0FF0040F001002C
:102CA000086100E007E02B46044920460A9A00F03C
:102CB000E9F90028AAD00120A8E7000002000100DD
:102CC0002DE9F843044600680D46DDE908970168E0
:102CD0009846164641F4807101604B4600224FF041
:102CE00001112046009700F085F948B1206800687E
:102CF000C00502D54FF4007020640320BDE8F883BE
:102D0000216805F0FE0008613B464A461549204609
:102D100000F0B8F988B920684169806900903A46A6
:102D20004946204600F044FA48B1206C042804D1FA
:102D30002068016841F4007101600120DEE7F5B20E
:102D4000B8F1010F09D02168300A08613A464946B6
:102D5000204600F02DFA0028E7D120680561002008
:102D6000CCE700000200010038B50C4690F83D2089
:102D700000212825954302680B4605D051699169C9
:102D8000009180F83C3038BD556825F48065556069
:102D9000E243540700D50121120601D5828900E0E3
:102DA000028B80F83C3092B2FDF7F7FD38BD000091
:102DB0002DE9F04190F83D300446C26A00212026FA
:102DC0001E4F00686FF48065082A01D0202A01D1C7
:102DD000282B04D0212B17D04561BDE8F081E76294
:102DE000426822F4E062426020684561206802681F
:102DF00022F480620260216384F83D6084F83E1012
:102E00002046FEF705F8E8E7E7622122226384F80E
:102E10003D6084F83E10416821F4E0614160206823
:102E200045612068016821F4806101602046FFF758
:102E300053FB2046FEF7D1F9CFE700000000FFFF6B
:102E4000F8B590F83D6004460068416821F4E061FF
:102E500041602068002541690091016841F001014D
:102E600001602068016821F4806101602068416888
:102E7000090520D5474F222E48D02A2E46D0616B17
:102E8000096849686185618D19B1216C41F00401BF
:102E90002164416821F400614160606BFDF762FCD0
:102EA000012808D0606B0765606BFDF749FC10B125
:102EB000606B016D8847608D08B320684169C94324
:102EC000490708D40069616A0870606A401C606242
:102ED000608D401E608520684169C943490608D459
:102EE0000069616A0870606A401C6062608D401E03
:102EF0006085608D18B1206C40F004002064206C67
:102F000000B32046BDE8F840FFF7EEBAA16B0968B0
:102F100049686185618D19B1216C41F0040121641A
:102F2000416821F400614160A06BFDF71BFC0128A2
:102F3000C1D0A06B0765A06BFDF702FC0028BAD0DA
:102F4000A06BB6E72A2E06D12563282084F83D0021
:102F50002046FEF741F994F83D10202028290DD095
:102F6000216B222901D0222E07D1256384F83D0050
:102F700084F83E502046FEF72FF9F8BD0649E1627D
:102F8000256384F83D0084F83E502046FDF740FF5D
:102F9000F8BD00001D2400080000FFFF70B51646B4
:102FA0000D4604461EE02046FFF74AFB08B101200B
:102FB00070BD681C16D0FDF7E9FC801BA84200D844
:102FC00085B920684069C04340070BD5002044F80C
:102FD000300F20216173A073216941F0200121612C
:102FE0002073E4E720684069C0434007DBD4002039
:102FF00070BD00002DE9F047984617460D4604467F
:10300000C1F30746DDF820902AE000BFB8F1FF3F8A
:1030100026D0FDF7BBFCA0EB0901414502D8B8F171
:10302000000F1DD12068012E16D0806925EA00000E
:103030000004000C12D00020B84211D1002044F846
:10304000300F20216173A073216941F020012161BB
:1030500020730120BDE8F0874069E7E70120EBE736
:103060002068012E0AD0806925EA00000004000CC7
:1030700006D00020B842C9D00020EBE74069F3E752
:103080000120F7E72DE9F047984616460D4604461D
:103090004FF000094FF0200AC1F3074723E02068F2
:1030A0004069C043400515D42068016841F40071AF
:1030B000016021686FF480604861C4F8309084F842
:1030C0003DA084F83E90216C41F00401216484F815
:1030D0003C9021E0701C06D0FDF758FCA0EB0800E6
:1030E000B04203D816B1012F1FD021E02068012F74
:1030F00015D0806925EA00000004000C18D000BF3C
:1031000044F8309F84F80DA084F80E90216941F0B6
:103110002001216184F80C900120BDE8F08740690E
:1031200025EA00000004000CEAD12068406901E0B3
:103130002068806925EA00000004000CAFD1ECE7AC
:103140002DE9F041002590460E460446202728E050
:103150004069C043C0060CD454F8301B6FF0100017
:10316000486144F810596777A577206A206225776F
:1031700014E0FDF70BFCA0EB0800B04200D886B9C4
:1031800020684069C04340060BD544F8305F677340
:10319000A573206940F02000206125730120BDE85F
:1031A000F08120684169C9434906D1D40020F6E77F
:1031B00070B516460D4604461EE02046FFF740FA5D
:1031C00008B1012070BD681C16D0FDF7DFFB801B25
:1031D000A84200D885B920684069C04300060BD5D5
:1031E000002044F8300F20216173A073216941F061
:1031F000200121612073E4E720684069C043000694
:10320000DBD4002070BD000070B588B00D460646C6
:1032100015216C4601A8FDF74BF90A480022006809
:103220000090A85CA118521CC870142AF9DBFE207B
:103230008DF81700C823192269463046FFF78FF82A
:1032400008B070BD546500081CB505A26423D2E91E
:103250000012CDE9001205226946FFF780F81CBD77
:10326000FA00FBFBFE0000001CB53B49881ECDE9BF
:103270000001831E021F811F083800F013F9364C2D
:103280000A3CB4F90A10B4F90800CDE90001B4F918
:103290000630B4F90420B4F90210B4F9000000F0CB
:1032A000B9F894ED040AD4ED0E0A9FED2C1A00EE45
:1032B000810A84ED040A94ED090AD4ED0A0A20EE8D
:1032C000000A00EEA00AD4ED0B0A00EEA00A01F0FD
:1032D000B3F8F7EE000A224930EE600AB0EEC00AF9
:1032E00010EE100A88420FDAD4ED090A94ED0A0AAA
:1032F00000F04CFFDFED1B0A20EE200ADFED1A0A7A
:1033000080EE201A84ED051A94ED040ADFED170A09
:103310009FED171A184920EE200AD4ED050A00EE99
:10332000810ADFED140A20EE200ADFED140A10EE08
:10333000100A84ED030A884203DD30EE600A84ED52
:10334000030A10EE100A0E49884203D930EE200A13
:1033500084ED030A1CBD0000C60000200AD7233CF0
:10336000CDCCCC3D00003443DA0F494048E17A3FF0
:1033700000D7A33CE926B13F000034430000B4432A
:10338000000034C32DE9FC5F0027DFF880903E4643
:103390003D463C46A9F1020AA9F10A084FF4FA7B1E
:1033A0001A4BCDE900A91B1F9A1E911E881E00F022
:1033B00079F8B8F90610B8F90A000F44B8F90810FE
:1033C00005440E440120FDF7D1F9641CA4B25C450C
:1033D000E6D300EE107AF8EEC00A9FED0D0A80EEFB
:1033E000801A00EE906AF8EEE00A88ED061A80EE88
:1033F000801A00EE905AF8EEE00A88ED071A80EE87
:10340000801A88ED081ABDE8FC9F0000C600002065
:103410000000FA4300EE100A2048DDED010AF8EE44
:10342000C01A9FED1D0A9DED001AF8EEE00A61EE4C
:10343000801AB8EEC11AC0ED091A01EE901AF8EE22
:10344000E11A61EE801AC0ED0A1A01EE902AF8EE38
:10345000E11A21EE800A80ED0B0A00EE103AD0ED61
:10346000061AB8EEC00A70EE611A9FED0D0A61EE01
:10347000801AC0ED0C1AD0ED071A31EE611A21EE58
:10348000001A80ED0D1A90ED081A70EEC10A20EEB8
:10349000800A80ED0E0A7047FEFFFF39BC00002055
:1034A000D6FF793D2DE9F0470746DDE9089A1D462C
:1034B00090460E463B2000F059F804463C2000F0B0
:1034C00055F840EA042038803D2000F04FF80446CB
:1034D0003E2000F04BF840EA042030803F2000F00E
:1034E00045F80446402000F041F840EA0420A8F8DE
:1034F0000000432000F03AF80446442000F036F87B
:1035000040EA04202880452000F030F80446462098
:1035100000F02CF840EA0420A9F80000472000F051
:1035200025F80446482000F021F840EA0420AAF8D3
:103530000000BDE8F08710B501216B2000F02AF8EB
:1035400000216C2000F026F80921192000F022F853
:1035500006211A2000F01EF818211B2000F01AF88E
:103560001821BDE810401C2000F014B81FB542F22D
:103570001073012203A98DE80E0013460246D021E4
:103580000348FDF74BFC9DF80C0004B010BD000093
:10359000F800002003B583B042F21073012204A9A1
:1035A0008DE80E0013460246D0210248FDF738FD93
:1035B00005B000BDF800002010B50B4A00210B48F3
:1035C00001F0E2F90A4C084A00212060243209483F
:1035D00001F0DAF9044A606048320021064801F03F
:1035E000D3F9A06010BD0000D0640008FD3A0008C7
:1035F00000000020053B0008453B000830B587B0BF
:1036000014216846FCF754FF21480024016841F06A
:1036100004010160016801F004010591016841F0B5
:1036200080010160016801F080010591016841F0AD
:1036300001010160016801F001010591016841F09B
:1036400010010160016801F010010591016841F06D
:1036500008010160016801F008010591016841F06D
:103660000201016000680B4D00F00200059000228D
:10367000F0212846FDF784F9F02000900120CDE9E3
:103680000104694628460394FDF782F807B030BD6F
:1036900030380240000C02400D4810B50B49016063
:1036A0000C49416000214FF480428160C0E903125F
:1036B00041618161C1610162FDF7E6FA002803D032
:1036C000BDE81040FCF7F1BF10BD00000054004001
:1036D000F8000020A086010010B592B000240F94DD
:1036E0001C2168461094FCF7E3FE202107A8FCF794
:1036F000DFFE2548234901600721C0E9011440F29B
:10370000E731C0E903148021C0E90541FEF7C1FBA0
:1037100008B1FCF7CAFF0F940FA91B481094FEF7DD
:1037200015F908B1FCF7C1FF6020CDE9000402944F
:103730000394049405940022694613480694FEF706
:1037400042FB08B1FCF7B1FF042269460E48FEF7C0
:103750003AFB08B1FCF7A9FF0794089409944FF4C9
:1037600000500A94CDE90B4007A907480E94FEF7D4
:10377000C3F808B1FCF799FF0348FEF7F9FA12B055
:1037800010BD0000000001404C01002010B58CB0BD
:1037900024216846FCF78CFE0024154809944FF05C
:1037A00080410A94C0E900144FF6FF71C0E902415C
:1037B000046184610320CDE900040120CDE9020405
:1037C0000494CDE905400794694609480894FEF73A
:1037D00091F908B1FCF769FF099409A904480A9412
:1037E000FEF7B4F8002801D0FCF75FFF0CB010BD65
:1037F0009401002010B58CB024216846FCF758FED7
:1038000000241648099414490A94C0E900144FF69C
:10381000FF71C0E90241046184610320CDE9000425
:103820000120CDE902040494CDE9054007946946DE
:103830000A480894FEF75EF908B1FCF736FF0994D0
:1038400009A906480A94FEF781F8002801D0FCF780
:103850002CFF0CB010BD000000080040DC0100206F
:103860001CB500240E4800940C490194016042F2FA
:10387000CF01C0E9011463218461C160FEF7AEF895
:1038800008B1FCF712FF0094694605480194FEF761
:103890005DF8002801D0FCF708FF1CBD00100040B7
:1038A000240200200C4810B50A4901604FF416515B
:1038B0004160002181600C22C160C0E90412816175
:1038C000C161FEF7DBFC002803D0BDE81040FCF727
:1038D000ECBE10BD001001406C020020FEE70000AD
:1038E000364800B5F0EE403A90ED000AB0EE603A8E
:1038F000334971EE400A9FED330A10EE900A884278
:1039000002DD70EEC00A06E010EE900A2E498842F1
:1039100001D970EE800ADFED2D2A2D48B0EE620A43
:1039200000F060F873EEC00A33EE000A294B9FEDF9
:103930002B1AF5EEC00AC3ED060AF1EE10FA26487E
:1039400083ED070A02D2C3ED062A05E010EE901AB5
:10395000814201DD83ED061AB5EEC00AF1EE10FAE0
:1039600002D2C3ED072A05E010EE101A814201DDF4
:1039700083ED071AFCF764FE1548D3ED000A93EDBA
:10398000060A683800F02EF8BDEEC00A104883ED34
:10399000040AD3ED010A93ED070A343800F022F847
:1039A000BDEEC00A002083ED050A196900F08CF80D
:1039B000596904205DF804EB00F086B8C8000020C7
:1039C000000034430000B443000034C30000000092
:1039D000384C00209C0000200000C8420000C84273
:1039E000FEE7000080ED070A30EE600AC0ED080A2D
:1039F000DFED2B1A80ED090A90ED051AF0EEC00AF2
:103A0000F4EEC10AF1EE10FA16D2D0ED0B0A40EE38
:103A1000210AC0ED0B0A90ED061AF4EEC10AF1EE90
:103A200010FA06DCB1EE411AF4EEC10AF1EE10FA1A
:103A300006D280ED0B1A03E0DFED1A0AC0ED0B0A87
:103A4000D0ED0A0A90ED0B2A70EE600A80EEA11A02
:103A5000D0ED000AD0ED011A60EE800A41EE820A34
:103A6000D0ED021A41EE810AC0ED0C0A90ED031A66
:103A7000F4EEC10AF1EE10FA02DCB0EE601A01E0D9
:103A800080ED0C1AD0ED040AB4EEE01AF1EE10FA53
:103A900001D2C0ED0C0A80ED0A0A90ED0C0A7047C5
:103AA0000AD7233C0000000080EC070A9FED050ABE
:103AB00080ED090A80ED0A0A80ED0B0A80ED0C0A00
:103AC0007047000000000000002901DA002104E036
:103AD0004FF47A72914200DD1146074A126828B10C
:103AE000042805D0082805D0116470475163704739
:103AF00091637047D16370474C010020012000F0B2
:103B000001FFFBE700F054FD01F03CFD00F0F6FC86
:103B100001F026FC01F036FD01F0CAFB01F048FD82
:103B200000F0BEFD00F0B0FC01F0D8FC002108461A
:103B3000FFF7CAFF00210420FFF7C6FF0A2000F0AC
:103B4000E1FEF3E7FFF790FB0A2000F0DBFEF9E768
:103B500010B54FF0E020006902F0F6FA012803D01A
:103B6000BDE8104002F024B810BD000030B593B09D
:103B700030216846FCF79CFC14210CA8FCF798FC4B
:103B80001D480025016841F080510160006800F087
:103B9000805011901948016841F48041016000682B
:103BA000022400F480401190012003901020049022
:103BB000009406940820CDE90750A820CDE9090417
:103BC00004200B906846FDF7DFFC08B172B6FEE7F3
:103BD0000CA90F2081E831004FF4A0500F904FF452
:103BE0008050109005210CA8FDF7C2FB002801D0E1
:103BF00072B6FEE713B030BD40380240007000409E
:103C00000248016841F470010160704788ED00E0EE
:103C10000148FEF714B80000240200200148FEF716
:103C20000EB80000B4020020F0B50268274B284D02
:103C3000284E294F294C4FF0804C984209D06045BE
:103C400007D0A84205D0B04203D0B84201D0A0426C
:103C500004D122F0700E4A6842EA0E0298421BD04C
:103C6000604519D0A84217D0B04215D0B84213D041
:103C7000A04211D01A4DA8420ED01A4DA8420BD026
:103C8000194DA84208D0194DA84205D0184DA84298
:103C900002D0184DA84203D122F44075CA682A43C5
:103CA0004D6922F080022A438D68C5620D688562E5
:103CB000984201D0A04201D109690163016841F035
:103CC00004010160012141610260F0BD000001407A
:103CD0000004004000080040000C004000040140C7
:103CE00000400140004401400048014000180040ED
:103CF000001C00400020004010B501F01F0301210E
:103D0000046A99408C430462016A9A40114301623B
:103D100010BD0000F0B5036A026A22F001020262DF
:103D200042688469124E24F073050C682C4323F01A
:103D300002058B682B430D4DA84201D0B04205D13E
:103D400023F00807CB683B4323F00403A84201D0CB
:103D5000B04205D14D6922F4407215438A692A4365
:103D600042608461496841630362F0BD0000014024
:103D700000040140F0B5026A036A23F010030362F5
:103D8000436884690D6824F4E64444EA05248D6898
:103D900022F0200242EA05120F4D104EA84201D037
:103DA000B04206D1CF6822F0800242EA071222F028
:103DB0004002A84201D0B04207D14D6923F44063CC
:103DC00043EA85038D6943EA85034360846149685A
:103DD00081630262F0BD0000000001400004014068
:103DE000F0B5026A036A23F4807303624368C4690E
:103DF00022F4007224F073050C68124E2C438D6877
:103E000042EA05220E4DA84201D0B04206D1CF6849
:103E100022F4006242EA072222F48062A84201D022
:103E2000B04207D14D6923F4405343EA05138D692D
:103E300043EA05134360C4614968C1630262F0BD8F
:103E4000000001400004014030B5046A026A22F417
:103E5000805202624268C3690D6823F4E64343EA74
:103E600005238D6824F4005444EA0534084DA84223
:103E700002D0084DA84204D14D6922F4804242EAA2
:103E800085124260C36149680164046230BD00006C
:103E9000000001400004014010B5806B0021C18585
:103EA000FEF7AAF810BD01680C3151E8002F22F48A
:103EB000907241E80023002BF5D10168143151E8DC
:103EC000002F22F0010241E80023002BF5D1016B05
:103ED000012909D101680C3151E8002F22F01002AC
:103EE00041E80023002BF5D1202180F84210002169
:103EF0000163704708B590F84210222901D00220D2
:103F000008BD82684FF480539A4201D1016921B102
:103F1000816A9A421BD04AB10AE00268816A5268FB
:103F2000C2F308020A80816A891C08E0026972B142
:103F30000268526802F07F020A70816A491C81623D
:103F4000C18D491E0904090CC18503D01BE002681C
:103F50005268F1E70168CA6822F02002CA6001686D
:103F6000CA6822F48072CA6001684A6922F00102BC
:103F70004A61202180F8421000214163026B012A2E
:103F800003D0FEF7EBF9002008BD016301680C3196
:103F900051E8002F22F0100241E80023002BF5D158
:103FA00001680A68D20602D50A6849680091818DC5
:103FB000FEF721F8E7E7000070B5044600680169E4
:103FC000E26821F44051114301612169A068E2696E
:103FD00008436169114308432168CA6849F20C63C8
:103FE0009A430243CA6020684169A26921F4407182
:103FF0001143416131492068884202D030498842EA
:1040000002D1FDF77FFA01E0FDF76CFAE2690023C7
:10401000192164253226B2F5004F626828D0A0FB32
:104020000101930F9200FCF77FF90146B0FBF5F018
:104030006FF01802504301EB800006EB0010B0FB5C
:10404000F5F000F0F002B1FBF5F002EB0012B1FB6D
:10405000F5F06FF01803584301EB800006EB0010F9
:10406000B0FBF5F000F00F0021681044886070BDCF
:10407000A0FB010192185B41FCF756F90146B0FB29
:10408000F5F00201B1FBF5F06FF01803584301EBB6
:10409000800006EBC000B0FBF5F000F0F80002EB8A
:1040A0004002B1FBF5F0584301EB800006EBC00085
:1040B000B0FBF5F000F00700D6E70000001001406B
:1040C000001401402DE9F843984617460D46044672
:1040D000089E24E0701C22D0FCF758FCA0EB0800DE
:1040E000B0421AD8CEB12068C168490717D5802DD3
:1040F00015D0402D13D00168C94309070FD40168BA
:104100000025406800902046FFF7CDFE082060643F
:1041100084F840500120BDE8F8830320FBE72068C5
:10412000006835EA000004D00020B842D2D0002058
:10413000F1E70120F9E700000148FDF75FBF00004B
:104140006C020020FEE74100080218BF04200A0E9E
:1041500018BF40F001004FF07F4232EA010108BF72
:1041600040F00200012808BF052070470907090E2A
:10417000002804DB00F1E02080F80014704700F014
:104180000F0000F1E02080F8141D704770B54FF06B
:1041900068422DED048BF0EE408A18EE900AB0EEE6
:1041A000608A18EE101A02EB4003B3F1654F3CBF72
:1041B00002EB4102B2F1654F7DD200BFC0F3C7539D
:1041C000C1F3C7529A1A1B2A09DD10F0004F14BF21
:1041D0009FED830A9FED830ABDEC048B70BD12F145
:1041E0001A0F36DA11F0004F09D010F0004F0CBF53
:1041F0009FED7D0A9FED7D0ABDEC048B70BD88EEBE
:10420000889A19EE100AFFF79EFF042808BF00F0F5
:1042100033F918EE900AFFF796FF054618EE100ADC
:10422000FFF791FF044619EE100AFFF78CFF042DEB
:1042300018BF052D08D1042C18BF052C04D1002867
:1042400004BF0220FCF763F9B0EE490ABDEC048B11
:1042500070BD4200B2EB410F3AD910F0004F19BFC8
:10426000DFED630A9FED630ADFED630A9FED630AEA
:10427000B0EE481A0A46B1EE688A80F00041F0EECE
:10428000418A10460A1A5200B2F1807F34D2484067
:1042900010F0004FDFED5A1A9FED5A2A1DBFBEEEF7
:1042A000001A70EEE10A30EE420AB6EE001A08BFBC
:1042B00070EEA10A00E040E008BF30EE020AB0EE66
:1042C000682A01EE482A08EE818AC2EE081A15E033
:1042D00011F0004F04BF9FED4C0AF0EE400AD1D020
:1042E00010F0004F19BFDFED490A9FED490ADFEDDD
:1042F000490A9FED490AC5E7C8EE881A21EEA11ABE
:104300009FED462ADFED462A41EE022A9FED452A1F
:1043100001EE222ADFED442A41EE022A9FED432AD4
:10432000BDEC048B01EE222A21EE811A01EE020A75
:1043300030EE210A30EE200A70BD4FF07F42B2EB22
:10434000400F28BFB2EB410F09D2F0EE480AB0EEA1
:10435000680ABDEC048BBDE8704000F08AB840EA02
:1043600001035B0008BF41F0FF410BD0B2EB400FEF
:1043700008BFB2EB410F08D120F0804008EE900A50
:1043800021F0804108EE101A18E7B2EB400F12BF7F
:104390005FEA410340F0FF4001F000413FF40EAFFF
:1043A000B2EB410F12BF5FEA400200F0004041F063
:1043B000FF413FF403AF4A0092EA40033FF5FEAEEF
:1043C000002AACBF9FED1A0A9FED1A0A68EE808A98
:1043D00028EE008A18EE900A18EE101AEEE6000099
:1043E000DB0FC9BFDB0FC93FDB0F4940DB0F49C003
:1043F0000000C9BF22AAFDB90000C93F22AAFD39A9
:104400000060ED3EC30ACE3700000000000049C046
:1044100022AA7DBA0000494022AA7D3A2DAD65BD91
:104420008FB8D53D0FB511BE61C84C3EA8AAAABE33
:104430000000804F0000802F10B52DED028BB1EEF3
:10444000C08A18EE100A20F00040C0F1FF40C00FF3
:104450000AD010EE100A20F00040C0F1FF40C00F5B
:1044600004BF0120FCF753F8B0EE480ABDEC028B04
:1044700010BD30EE200A70479FED020A20EE000AC0
:10448000704700000000001070B52DED028B00F0A9
:1044900046FA00F5C875164C9FED168A0BE000BF72
:1044A000B0EE481AD4ED030A94ED020AFFF718FAA9
:1044B000012000F027FA00F032FAA842F0D300F011
:1044C0002EFA00F5E1659FED0C8A0AE0B0EE481A7D
:1044D000D4ED030A94ED020AFFF702FA012000F07E
:1044E00011FA00F01CFAA842F0D3BDEC028B70BDAB
:1044F0009C000020000034C2000000002DE9F041C3
:1045000086B000F00CFA00F57A740020C822B427B7
:1045100069464FF0280832250A54401C1428FBDB5A
:104520000DE000BF8DF801808DF800708DF8085007
:1045300069461E48FEF768FE012000F0E3F900F02E
:10454000EEF9A042EED300F0EAF900F57A741E26E7
:104550000DE000BF8DF801808DF800708DF80860C7
:1045600069461248FEF750FE012000F0CBF900F03A
:10457000D6F9A042EED300F0D2F900F57A7496276E
:104580000DE000BF8DF801508DF800708DF80860C7
:1045900069460648FEF738FE012000F0B3F900F046
:1045A000BEF9A042EED306B0BDE8F0816C02002057
:1045B00070B52DED028B00F0B2F900F5C874344DE2
:1045C0005FE09FED341AD5ED030A95ED020AFFF77F
:1045D00087F9012000F096F900F0A1F900F51674B2
:1045E0000BE000BFBAEE041AD5ED030A95ED020AFE
:1045F000FFF776F9012000F085F900F090F9A0426C
:10460000F0D300F08CF900F516740AE0BBEE041A42
:10461000D5ED030A95ED020AFFF762F9012000F0DB
:1046200071F900F07CF9A042F0D300F078F900F5C0
:1046300016749FED198A0AE0B0EE481AD5ED030A08
:1046400095ED020AFFF74CF9012000F05BF900F04C
:1046500066F9A042F0D300F062F900F516749FED00
:104660000F8A0AE0B0EE481AD5ED030A95ED020A6A
:10467000FFF736F9012000F045F900F050F9A042AB
:10468000F0D300F04CF9A0429BD3BDEC028B70BD7F
:104690009C00002000000000000020C20000A0C21A
:1046A00070B52DED028B00F03AF900F1C8052C4CE5
:1046B0009FED2C8A0BE000BFB0EE481AD4ED030A40
:1046C00094ED020AFFF70CF9012000F01BF900F04D
:1046D00026F9A842F0D300F022F900F57A659FEDA3
:1046E000228A0AE0B0EE481AD4ED030A94ED020AD9
:1046F000FFF7F6F8012000F005F900F010F9A842E4
:10470000F0D300F00CF900F516759FED188A0AE059
:10471000B0EE481AD4ED030A94ED020AFFF7E0F870
:10472000012000F0EFF800F0FAF8A842F0D300F012
:10473000F6F800F2DC559FED0E8A0AE0B0EE481A5A
:10474000D4ED030A94ED020AFFF7CAF8012000F045
:10475000D9F800F0E4F8A842F0D3BDEC028B70BDAC
:104760009C0000200000344200000000000034C221
:104770000000B4C20168486A47F6FF724A62801AB4
:10478000704700002DED048BFCF730FDFFF7EEF9CC
:10479000FEF734FFFEF7FAFFFFF72CF8FFF760F89B
:1047A000FEF79AFFFEF778FFFFF77CF800214348F9
:1047B000FDF7B2FB04214148FDF7AEFB0021404864
:1047C000FDF7AAFB04213E48FDF7A6FB00213D486A
:1047D000FDF7A2FB04213B48FDF79EFB374947F656
:1047E000FF700968486236490968486236496FF0C7
:1047F0000100096808613448FDF73CF99FED358AEE
:10480000DFED328A9FED329ADFED339AB0EE683AEF
:10481000F3EE042AB3EE042AF0EE491AB0EE481A79
:10482000F0EE480AB0EE690A2C48FFF73DF9B0EE09
:10483000683AF3EE042AB3EE042AF0EE491AB0EE19
:10484000481AF0EE480AB0EE690A2548FFF72CF93D
:10485000DFED260AB3EE043AF1EE042A9FED212A99
:10486000DFED211AB0EE601AB7EE080A2048FFF714
:104870001BF92048B3EE0E0A204C80ED000A1E48BA
:104880000122102180ED000A2046FCF779F8012270
:1048900080212046FCF774F8FEF74DFE1848FEF71D
:1048A000D3FC6420FBF762FFFEF76CFD00F03EF8DE
:1048B000FEF782FE00F04CF8FEE7000094010020B5
:1048C000DC0100204C010020240200200000FA43FB
:1048D00000007A449A99993E33332B41D04B002003
:1048E000044C0020000048C200004842CDCC4C3EA1
:1048F000384C0020A4000020A8000020000C02403A
:104900006C02002010B5EFF3058111B16FF00504C2
:1049100003E0002408B100F0EBFF204610BDEFF3E8
:10492000058008B101F024BC01F01CBCEFF3058048
:1049300010B16FF0050070470448016811B14FF0E5
:10494000FF30704701210160002070476C0000209B
:1049500010B5EFF3058010B16FF0050010BD0848E9
:104960000168012902D04FF0FF3010BD054A002137
:1049700082F8141D0221016001F022F8002010BD10
:104980006C0000200BE000E02DE9FF414FEA01033D
:104990004FF00005EFF30581039549BB40B3802735
:1049A000182100244AB3166806B1344696691EB130
:1049B0003146761E382E02D21679F60703D0002033
:1049C00004B0BDE8F081566906B1B708D2F808C056
:1049D000BCF1000F0DD0D5685C2D18D312693AB127
:1049E00036B18DE806103A46214601F082FB03906D
:1049F0000DE0D6685EB912694AB903AACDE9001282
:104A0000BAB2214601F048FB012800D00395039873
:104A1000D6E700002DE9F041134C0F460546E66845
:104A20002068001D00F030FE681C07D137B12168F6
:104A3000BDE8F0410D48091D00F076BE2068354400
:104A4000B5424560216805D2A06BBDE8F041091D63
:104A500000F052BE606B091D00F04EFEA06A854258
:104A600000D2A562BDE8F0811C000020EC07002008
:104A70002DE9F041054600F063FE2D4CA068401C76
:104A8000A06020682B4F10B1606930B32BE0256027
:104A9000A068012827D1002606EB860007EB8000DE
:104AA00000F01CFE761C382EF6D3234800F016FECC
:104AB0002148143000F012FE1F48283000F00EFE8E
:104AC0001D483C3000F00AFE1B48503000F006FE46
:104AD000194860631430A06305E02068E96AC06A81
:104AE000884200D82560606A401C60626864E86A99
:104AF0002169884200D9206100EB800007EB80002B
:104B0000291D00F011FE00F03BFE606900280CD06A
:104B10002068E96AC06A884207D208494FF080508D
:104B20000860BFF34F8FBFF36F8FBDE8F0810000C7
:104B30001C0000203C0300209C07002004ED00E046
:104B400038B500F0FDFD104C2068C8B90F4800F0E2
:104B5000C5FD0E48143000F0C1FD0C48E060143073
:104B600020610A4B0020F03B009003F1500210211D
:104B70000A2001F033F8206010B105A100F082FE98
:104B8000BDE8384000F0FCBD58000020F0080020CF
:104B9000546D72510000000030B4026C0B46002AC4
:104BA0000BD0C1681144C1608468A14201D301687F
:104BB000C16030BC1846FBF72EBC30BC70472DE9F5
:104BC000F041856B174604460026026C82B1C7B1DE
:104BD000E068FBF720FCE168206C091AE1602268BC
:104BE000914202D2A168081AE060022F16D017E0A5
:104BF0002068A8B9A06801F027FB06460020A06045
:104C00000EE06068FBF707FC216C60680844606098
:104C1000A168884204D32068606001E005B16D1E80
:104C20006D1CA5633046BDE8F08110B5044690F8D0
:104C3000590058B101280CD002280FD0502080F321
:104C40001188BFF34F8FBFF36F8FFEE7206B00F02B
:104C5000ABFD2046BDE8104000F0A6BD10BD000031
:104C600010484FF47051420706D0C01D0D4920F086
:104C70000700411AC1F570510B4A00230144C2E9F3
:104C800000030839183A21F0070111604B600B60EE
:104C90000B1AC0E9001393604FF00040536050615D
:104CA00070470000D00F002088000020144E154CE3
:104CB000A6F29C474FF08058DFF84C9012E000BFFE
:104CC00000F03EFDF068C568281D00F0DDFCA0681E
:104CD000401EA0606068401E606000F051FD2846E4
:104CE000FFF7A3FF60680028EAD138680128F9D9E6
:104CF000C9F80080BFF34F8FBFF36F8FF2E700005A
:104D0000D80700201C00002004ED00E070B51D460F
:104D1000049C51B1C4F80020C4E90F0101212046D0
:104D200000F090FF84F84C5070BD2460F4E7000060
:104D30002DE9F05F8846DDE90B9415468346910026
:104D40009A460A9EA522206BFBF7AAFB6FF003018F
:104D5000206B01EB8501084420F00707780707D096
:104D6000502080F31188BFF34F8FBFF36F8FFEE7A2
:104D70000025B8F1000F0FD05FF00000221818F8DE
:104D8000001082F8341018F8001011B1401C1028DF
:104D9000F4D384F8435001E084F83450382E00D323
:104DA0003726E662C4E91365201D00F0A2FC04F179
:104DB000180000F09EFC2461C6F138006462A06116
:104DC000656584F8585052465946384600F05AFAFC
:104DD0002060B9F1000F01D0C9F80040BDE8F09F94
:104DE00030B5114900E011460A688242FBD34B6896
:104DF0005C18844203D14068184448600846436800
:104E00001C18944209D1084C183C2468A24209D0CD
:104E100052681A4442600A6812680260814200D0F7
:104E2000086030BD0460F9E78800002070B50024F8
:104E300041600B4D0061914206D8D11A82699142BE
:104E400006D2011D286907E09A4203D2994201D394
:104E5000012403E0011DE86800F04EFC204670BD0F
:104E60005800002010B5044600F06AFCA06B28B181
:104E70005FF0000400F084FC204610BD0124F9E737
:104E800030B589B03C4D6EE00498002806DADDE9C3
:104E90000601059A90470498002864DB069C606927
:104EA00010B1201D00F0F0FB03A800F0D7F8024677
:104EB00004980A2857D2DFE800F00505052D334A8B
:104EC00005052D3394F8280040F0010084F82800EF
:104ED0000599A069059B01442046FFF7A7FF68B329
:104EE000216A2046884794F8280040073BD50020D7
:104EF00000900598A169002342181946204601F048
:104F0000ADFAD8B9502080F31188BFF34F8FBFF3AB
:104F10006F8FFEE714F8280F20F00100207022E0C8
:104F200094F8280040F0010084F828000598A0615A
:104F300028B1811813462046FFF778FF13E0502070
:104F400080F31188BFF34F8FBFF36F8FFEE794F8A4
:104F50002800810703D4204600F026FC03E020F05F
:104F6000010084F82800002204A9286800F0BEFF90
:104F7000002889D109B030BD580000202DE9FC413E
:104F80000F46054600F060FD01A800F067F80446F2
:104F9000019818B101F0D0F9BDE8FC81254EAFB100
:104FA00030690068D0B30027291B3A46306800F00A
:104FB0007DFC01F0C1F90028EED11F494FF080506F
:104FC0000860BFF34F8FBFF36F8FE5E7A542EBD8C3
:104FD00001F0B2F9F0682746C068C468201D00F0EF
:104FE00053FB94F82800410719D5A0692B464119B5
:104FF0003A462046FFF71AFFA8B1002003460146B3
:1050000000902A46204601F029FA60B9502080F32A
:105010001188BFF34F8FBFF36F8FFEE707E020F0DB
:10502000010084F82800216A20468847B4E7012758
:10503000BAE700005800002004ED00E00648416B8C
:10504000096829B1416BC968C968496881627047BC
:105050004FF0FF31FAE700001C00002070B5054654
:1050600001F080F8064E0446B068844203D200F096
:1050700009F8012000E0002028602046B46070BDDF
:1050800058000020F8B5194D20E0C068C4680668D3
:10509000201D00F0F9FA216A2046884794F828007C
:1050A000400713D5A0693044B04206D9246160603E
:1050B000211DE86800F020FB08E0002003460146BF
:1050C00000903246204601F0C9F938B1E86801681D
:1050D0000029DAD12969C5E90310F8BD502080F311
:1050E0001188BFF34F8FBFF36F8FFEE7580000208A
:1050F00008484068401C4FF0500080F3118804D0ED
:10510000BFF34F8FBFF36F8FFEE7BFF34F8FBFF338
:105110006F8FFEE790000020074CE068016841B106
:10512000C0680021D0F80000FFF728FFFFF7A8FEB5
:10513000F3E701210020F7E7580000202DE9F041B6
:10514000044600F0FDFA94F9455004F1240609E004
:10515000606A48B1304601F0B7F808B100F0F6FBDC
:105160006D1E6DB2002DF3DC4FF0FF3684F8456004
:1051700000F006FB00F0E4FA94F9445004F1100743
:1051800009E0206948B1384601F09EF808B100F006
:10519000DDFB6D1E6DB2002DF3DC84F84460BDE8CC
:1051A000F04100F0EDBA00002DE9F041054600277E
:1051B00000F04AFC324E306808B9FFF751FD7069C3
:1051C00005424ED1C5B3083568070ED005F007007B
:1051D000C0F108000544680707D0502080F311880B
:1051E000BFF34F8FBFF36F8FFEE72DB3706885421B
:1051F00037D82348183001460C6801E020460C4699
:105200006168A94202D221680029F7D131688C4235
:1052100027D007682168016060680837411B1029A2
:105220000FD96019420708D0502080F31188BFF3CE
:105230004F8FBFF36F8FFEE713E041606560FFF7AC
:10524000CFFD61687068401A7060B268904200D209
:10525000B060706901430020C4E90001F068401C9F
:10526000F06001F069F8780707D0502080F31188CA
:10527000BFF34F8FBFF36F8FFEE73846BDE8F08175
:105280007000002010B5031F4FF080741C601B1FBE
:1052900021F001011960191F044B0B6014390A60D9
:1052A000091F6FF0020244380A6010BDF150000877
:1052B0002DE9F04186B0FFF732FB00F57A7400204B
:1052C000C82269464FF01E0832270A54401C142891
:1052D000FBDB9625FFF723FBA0420DD28DF8017072
:1052E0008DF800508DF8088069461C48FDF78CFF4A
:1052F0000120FFF707FBEDE7FFF711FB282500F57D
:105300007A74B4260DE000BF8DF801508DF800606E
:105310008DF8088069461148FDF776FF0120FFF7F8
:10532000F1FAFFF7FCFAA042EED3FFF7F8FA00F526
:105330007A740CE08DF801508DF800608DF80870DB
:1053400069460648FDF760FF0120FFF7DBFAFFF72B
:10535000E6FAA042EED306B0BDE8F0816C02002070
:1053600070B52DED048BFFF7DAFA00F57A75554C20
:105370009FED558A0BE000BFB0EE481AD4ED030A4A
:1053800094ED020AFEF7ACFA0120FFF7BBFAFFF733
:10539000C6FAA842F0D3FFF7C2FA00F561759FED97
:1053A0004B8A0AE0B0EE481AD4ED030A94ED020AE3
:1053B000FEF796FA0120FFF7A5FAFFF7B0FAA84228
:1053C000F0D3FFF7ACFA00F5C875DFED418A0AE0CB
:1053D000B0EE681AD4ED030A94ED020AFEF780FAE3
:1053E0000120FFF78FFAFFF79AFAA842F0D3FFF7F0
:1053F00096FA00F5FA750AE0B3EE0E1AD4ED030A38
:1054000094ED020AFEF76CFA0120FFF77BFAFFF732
:1054100086FAA842F0D3FFF782FA00F5FA759FEDFD
:105420002D9A0AE0B0EE491AD4ED030A94ED020A6F
:10543000FEF756FA0120FFF765FAFFF770FAA84267
:10544000F0D3FFF76CFA00F516650AE0B0EE681AC3
:10545000D4ED030A94ED020AFEF742FA0120FFF7A9
:1054600051FAFFF75CFAA842F0D3FFF758FA00F5BB
:10547000FA750AE0B0EE481AD4ED030A94ED020A78
:10548000FEF72EFA0120FFF73DFAFFF748FAA8428F
:10549000F0D3FFF744FA00F52F759FED0F8A0AE06D
:1054A000B0EE481AD4ED030A94ED020AFEF718FA9A
:1054B0000120FFF727FAFFF732FAA842F0D3BDEC3C
:1054C000048B70BD9C0000200000A0C2000034C20C
:1054D00000000000000070420000B4C270B52DED65
:1054E000028BFFF71CFA00F52F65224C9FED228AF4
:1054F0000BE000BFB0EE481AD4ED030A94ED020AA7
:10550000FEF7EEF90120FFF7FDF9FFF708FAA842D0
:10551000F0D3FFF704FA00F548759FED188A0AE00A
:10552000B0EE481AD4ED030A94ED020AFEF7D8F95A
:105530000120FFF7E7F9FFF7F2F9A842F0D3FFF7F0
:10554000EEF941F2707145189FED0D8A0BE000BF36
:10555000B0EE481AD4ED030A94ED020AFEF7C0F942
:105560000120FFF7CFF9FFF7DAF9A842F0D3BDEC3D
:10557000028B70BD9C0000200000B4420000074375
:105580000000344310B5FFF7CAF900F57A640AE069
:1055900000210846FEF798FA00210420FEF794FA4D
:1055A0000120FFF7AFF9FFF7BAF9A042F0D310BD21
:1055B00070B52DED028BFFF7B2F900F5FA752D4CA1
:1055C0009FED2D8A0BE000BFB0EE481AD4ED030A20
:1055D00094ED020AFEF784F90120FFF793F9FFF733
:1055E0009EF9A842F0D3FFF79AF941F2707145187D
:1055F0009FED228A0BE000BFB0EE481AD4ED030AFB
:1056000094ED020AFEF76CF90120FFF77BF9FFF732
:1056100086F9A842F0D3FFF782F900F516759FEDE1
:10562000188A0AE0B0EE481AD4ED030A94ED020A93
:10563000FEF756F90120FFF765F9FFF770F9A84268
:10564000F0D3FFF76CF900F6C4159FED0E8A0AE05F
:10565000B0EE481AD4ED030A94ED020AFEF740F9C1
:105660000120FFF74FF9FFF75AF9A842F0D3BDEC3C
:10567000028B70BD9C000020000007C3000034C3F3
:10568000000007430000B442D0E9013201699A608A
:10569000D0E901235A604A68824201D182684A6097
:1056A000002202610868401E086008687047000018
:1056B000034B036003F15C000860802010607047BA
:1056C00018090020044B036003F15C0008604FF4EC
:1056D0008070106070470000740B002000F108011A
:1056E0004FF0FF32C0E90112C16001610021016089
:1056F000704700210161704730B50B685A1C02D019
:1057000000F1080202E0026904E0224654682568BC
:105710009D42FAD953684B6099608A605160086174
:105720000168491C016030BD42684A6093688B6023
:1057300093685960916008610168491C0160704775
:10574000502080F31188BFF34F8FBFF36F8F0A494A
:105750004868401C486001280CD10848006810F0D7
:10576000FF0F07D0502080F31188BFF34F8FBFF396
:105770006F8FFEE7704700009000002004ED00E00E
:105780000849486828B1401E486001D180F311885B
:105790007047502080F31188BFF34F8FBFF36F8F96
:1057A000FEE700009000002070B500282AD0164DBA
:1057B000A0F1080460686969084207D1502080F3AD
:1057C0001188BFF34F8FBFF36F8FFEE722683AB1A6
:1057D000502080F31188BFF34F8FBFF36F8FFEE728
:1057E0008843606000F030F9606869680844686068
:1057F0002046FFF7F5FA2869401C2861BDE8704093
:1058000000F09ABD70BD0000700000204FF0E02055
:1058100000210161816105494FF47A720968B1FB89
:10582000F2F1491E41610721016170471800002013
:1058300010B5FAF755FD114910280ED300F1E020FC
:1058400090F8F0030A78904207D2502080F3118834
:10585000BFF34F8FBFF36F8FFEE709480068896879
:1058600000F4E060884207D9502080F31188BFF32C
:105870004F8FBFF36F8FFEE710BD00009000002038
:105880000CED00E010B5084B002200BF53F8324089
:105890001CB1521C082AF9D310BD43F8321003EB97
:1058A000C201486010BD0000FC02002070B5154622
:1058B0000E460446FFF744FF94F944100020491CAB
:1058C00001D184F8440094F94510491C01D184F8B1
:1058D0004500FFF755FFA06B28B92A46314604F171
:1058E000240000F051F82046BDE87040FFF726BCC8
:1058F00010B5020014D00F48006B38B1502080F36F
:105900001188BFF34F8FBFF36F8FFEE700F09CF855
:1059100000211046FFF77EF800F00EFD002807D1A9
:1059200005494FF080500860BFF34F8FBFF36F8F72
:1059300010BD00001C00002004ED00E002490A6ACE
:105940000260C968416070471C00002001490120C5
:10595000C86170471C00002010B50C4650B10949C1
:1059600009681831FFF7C8FE2046BDE81040012144
:10597000FFF750B8502080F31188BFF34F8FBFF36B
:105980006F8FFEE71C00002070B514460D4668B10D
:105990000A4909681831FFF7C7FE0CB14FF0FF350F
:1059A00021462846BDE87040FFF734B8502080F308
:1059B0001188BFF34F8FBFF36F8FFEE71C000020ED
:1059C00030B587B00024039405AA04A903A8049461
:1059D000FFF76EFEDDE903010094CDE9011000231D
:1059E00015A11748059A00F084FB164D0028E862BF
:1059F0001FD000F003FD012809D0401C19D1502010
:105A000080F31188BFF34F8FBFF36F8FFEE75020F5
:105A100080F31188BFF34F8FBFF36F8F4FF0FF30CC
:105A2000A86201206861EC6007B0BDE8304000F07A
:105A300045B807B030BD000049444C4500000000A7
:105A4000AD4C00081C0000200248016B491C01639A
:105A5000704700001C000020164810B5016B11B102
:105A60000121C16110BD0021C1610169124A01E03B
:105A7000B9B1491E01EB810352F82330002BF7D056
:105A800001EB810302EB830202F1080453685B68B7
:105A90005360A34201D15B685360DA680260016120
:105AA00010BD502080F31188BFF34F8FBFF36F8F6D
:105AB000FEE700001C0000203C0300201CB5374816
:105AC0000168374A914207D1502080F31188BFF313
:105AD0004F8FBFF36F8FFEE700683149491E884240
